:020000040800F2
:1000000000C0002031190008490B00084B0B000804
:100010004D0B00084F0B0008510B000800000000BA
:10002000000000000000000000000000530B00086A
:10003000550B000800000000570B0008590B000882
:100040008119000881190008811900088119000828
:100050008119000881190008811900088119000818
:100060008119000881190008811900088119000808
:1000700081190008811900088119000881190008F8
:1000800081190008811900088119000881190008E8
:1000900081190008811900088119000881190008D8
:1000A00081190008811900088119000881190008C8
:1000B00081190008811900088119000881190008B8
:1000C00081190008811900088119000881190008A8
:1000D0008119000881190008811900088119000898
:1000E0008119000881190008811900088119000888
:1000F0008119000881190008811900088119000878
:100100008119000881190008811900088119000867
:100110008119000881190008610F00088119000881
:100120008119000881190008811900088119000847
:1001300010B5054C237833B9044B13B10448AFF321
:1001400000800123237010BDD401002000000000B6
:10015000F046000808B5034B1BB103490348AFF351
:10016000008008BD00000000D8010020F046000813
:10017000034613F8012B002AFBD1181A01387047E7
:1001800001F0FF01102A2BDB10F0070F08D010F848
:10019000013B013A8B422DD010F0070F42B3F6D14C
:1001A000F0B441EA012141EA014122F007047FF065
:1001B00000070023F0E80256083C85EA010586EABC
:1001C000010685FA47F5A3FA87F586FA47F6A5FAF8
:1001D00087F68EB9EED1F0BC01F0FF0102F0070204
:1001E00032B110F8013B013A83EA010313B1F8D1AF
:1001F0000020704701387047002D06BF3546033890
:10020000073815F0010F07D1013015F4807F02BFC8
:10021000013015F4C03F0130F0BC0138704700BF19
:1002200081F0004102E000BF83F0004330B54FEAA7
:1002300041044FEA430594EA050F08BF90EA020F14
:100240001FBF54EA000C55EA020C7FEA645C7FEAA7
:10025000655C00F0E2804FEA5454D4EB5555B8BFCA
:100260006D420CDD2C4480EA020281EA030382EA3B
:10027000000083EA010180EA020281EA0303362DCD
:1002800088BF30BD11F0004F4FEA01314FF4801CA0
:100290004CEA113102D0404261EB410113F0004FB2
:1002A0004FEA03334CEA133302D0524263EB430369
:1002B00094EA050F00F0A780A4F10104D5F1200E07
:1002C0000DDB02FA0EFC22FA05F2801841F1000162
:1002D00003FA0EF2801843FA05F359410EE0A5F136
:1002E00020050EF1200E012A03FA0EFC28BF4CF067
:1002F000020C43FA05F3C01851EBE37101F000451D
:1003000007D54FF0000EDCF1000C7EEB00006EEB29
:100310000101B1F5801F1BD3B1F5001F0CD34908B3
:100320005FEA30004FEA3C0C04F101044FEA44520A
:1003300012F5800F80F09A80BCF1004F08BF5FEA91
:10034000500C50F1000041EB045141EA050130BD71
:100350005FEA4C0C404141EB0101013C28BFB1F583
:10036000801FE9D291F0000F04BF01460020B1FACE
:1003700081F308BF2033A3F10B03B3F120020CDAA1
:100380000C3208DD02F1140CC2F10C0201FA0CF07F
:1003900021FA02F10CE002F11402D8BFC2F1200CE4
:1003A00001FA02F120FA0CFCDCBF41EA0C0190409A
:1003B000E41AA2BF01EB0451294330BD6FEA0404E3
:1003C0001F3C1CDA0C340EDC04F11404C4F12002CE
:1003D00020FA04F001FA02F340EA030021FA04F3E0
:1003E00045EA030130BDC4F10C04C4F1200220FA37
:1003F00002F001FA04F340EA0300294630BD21FA75
:1004000004F0294630BD94F0000F83F4801306BF3A
:1004100081F480110134013D4EE77FEA645C18BF2E
:100420007FEA655C29D094EA050F08BF90EA020FC5
:1004300005D054EA000C04BF1946104630BD91EABD
:10044000030F1EBF0021002030BD5FEA545C05D1C0
:100450004000494128BF41F0004130BD14F58004FF
:100460003CBF01F5801130BD01F0004545F0FE4173
:1004700041F470014FF0000030BD7FEA645C1ABFA8
:10048000194610467FEA655C1CBF0B46024650EADF
:10049000013406BF52EA033591EA030F41F400210B
:1004A00030BD00BF90F0000F04BF0021704730B591
:1004B0004FF4806404F132044FF000054FF0000166
:1004C00050E700BF90F0000F04BF0021704730B527
:1004D0004FF4806404F1320410F0004548BF4042FC
:1004E0004FF000013EE700BF42004FEAE2014FEA51
:1004F00031014FEA02701FBF12F07F4393F07F4F2C
:1005000081F06051704732F07F4208BF704793F02E
:100510007F4F04BF41F40021704730B54FF4607441
:1005200001F0004521F000411CE700BF50EA010244
:1005300008BF704730B54FF000050AE050EA0102ED
:1005400008BF704730B511F0004502D5404261EB5D
:1005500041014FF4806404F132045FEA915C3FF49E
:10056000D8AE4FF003025FEADC0C18BF03325FEA3B
:10057000DC0C18BF033202EBDC02C2F1200300FAEC
:1005800003FC20FA02F001FA03FE40EA0E0021FA11
:1005900002F11444BDE600BF70B54FF0FF0C4CF4FF
:1005A000E06C1CEA11541DBF1CEA135594EA0C0FB1
:1005B00095EA0C0F00F0DEF82C4481EA030621EAEC
:1005C0004C5123EA4C5350EA013518BF52EA033527
:1005D00041F4801143F4801338D0A0FB02CE4FF0D9
:1005E0000005E1FB02E506F00042E0FB03E54FF009
:1005F0000006E1FB03569CF0000F18BF4EF0010E01
:10060000A4F1FF04B6F5007F64F5407404D25FEAFC
:100610004E0E6D4146EB060642EAC62141EA5551AF
:100620004FEAC52040EA5E504FEACE2EB4F1FD0CF1
:1006300088BFBCF5E06F1ED8BEF1004F08BF5FEA6F
:10064000500E50F1000041EB045170BD06F0004621
:1006500046EA010140EA020081EA0301B4EB5C04CE
:10066000C2BFD4EB0C0541EA045170BD41F48011C6
:100670004FF0000E013C00F3AB8014F1360FDEBFEB
:10068000002001F0004170BDC4F10004203C35DAC7
:100690000C341BDC04F11404C4F1200500FA05F34A
:1006A00020FA04F001FA05F240EA020001F00042EB
:1006B00021F0004110EBD37021FA04F642EB060161
:1006C0005EEA430E08BF20EAD37070BDC4F10C048B
:1006D000C4F1200500FA04F320FA05F001FA04F24F
:1006E00040EA020001F0004110EBD37041F100013B
:1006F0005EEA430E08BF20EAD37070BDC4F1200546
:1007000000FA05F24EEA020E20FA04F301FA05F2AD
:1007100043EA020321FA04F001F0004121FA04F255
:1007200020EA020000EBD3705EEA430E08BF20EA25
:10073000D37070BD94F0000F0FD101F0004640005F
:1007400041EB010111F4801F08BF013CF7D041EAE1
:10075000060195F0000F18BF704703F000465200E5
:1007600043EB030313F4801F08BF013DF7D043EAB6
:100770000603704794EA0C0F0CEA135518BF95EA6C
:100780000C0F0CD050EA410618BF52EA4306D1D1F3
:1007900081EA030101F000414FF0000070BD50EA12
:1007A000410606BF1046194652EA430619D094EA9C
:1007B0000C0F02D150EA013613D195EA0C0F05D186
:1007C00052EA03361CBF104619460AD181EA0301DA
:1007D00001F0004141F0FE4141F470014FF0000092
:1007E00070BD41F0FE4141F4780170BD70B54FF02D
:1007F000FF0C4CF4E06C1CEA11541DBF1CEA1355AD
:1008000094EA0C0F95EA0C0F00F0A7F8A4EB05048E
:1008100081EA030E52EA03354FEA013100F0888085
:100820004FEA03334FF0805545EA131343EA12634E
:100830004FEA022245EA111545EA10654FEA002603
:100840000EF000419D4208BF964244F1FD0404F5BC
:10085000407402D25B084FEA3202B61A65EB030518
:100860005B084FEA32024FF480104FF4002CB6EBD5
:10087000020E75EB030E22BFB61A754640EA0C0055
:100880005B084FEA3202B6EB020E75EB030E22BF95
:10089000B61A754640EA5C005B084FEA3202B6EBD6
:1008A000020E75EB030E22BFB61A754640EA9C0095
:1008B0005B084FEA3202B6EB020E75EB030E22BF65
:1008C000B61A754640EADC0055EA060E18D04FEA23
:1008D000051545EA16754FEA06164FEAC30343EAC3
:1008E00052734FEAC2025FEA1C1CC0D111F4801F90
:1008F0000BD141EA00014FF000004FF0004CB6E789
:1009000011F4801F04BF01430020B4F1FD0C88BF27
:10091000BCF5E06F3FF6AFAEB5EB030C04BFB6EB32
:10092000020C5FEA500C50F1000041EB045170BD25
:100930000EF0004E4EEA113114EB5C04C2BFD4EB52
:100940000C0541EA045170BD41F480114FF0000ED6
:10095000013C90E645EA060E8DE60CEA135594EA52
:100960000C0F08BF95EA0C0F3FF43BAF94EA0C0F55
:100970000AD150EA01347FF434AF95EA0C0F7FF4CA
:1009800025AF104619462CE795EA0C0F06D152EA1E
:1009900003353FF4FDAE1046194622E750EA410602
:1009A00018BF52EA43067FF4C5AE50EA41047FF413
:1009B0000DAF52EA43057FF4EBAE12E74FF0FF3C78
:1009C00006E000BF4FF0010C02E000BF4FF0010C49
:1009D0004DF804CD4FEA410C7FEA6C5C4FEA430CC2
:1009E00018BF7FEA6C5C1BD001B050EA410C0CBF11
:1009F00052EA430C91EA030F02BF90EA020F002073
:100A0000704710F1000F91EA030F58BF994208BFD9
:100A100090422CBFD8176FEAE37040F00100704796
:100A20004FEA410C7FEA6C5C02D150EA013C07D1ED
:100A30004FEA430C7FEA6C5CD6D152EA033CD3D038
:100A40005DF8040B704700BF8446104662468C4632
:100A50001946634600E000BF01B5FFF7B7FF002865
:100A600048BF10F1000F01BD4DF808EDFFF7F4FF8E
:100A70000CBF012000205DF808FB00BF4DF808ED19
:100A8000FFF7EAFF34BF012000205DF808FB00BF3C
:100A90004DF808EDFFF7E0FF94BF012000205DF85E
:100AA00008FB00BF4DF808EDFFF7CEFF94BF012013
:100AB00000205DF808FB00BF4DF808EDFFF7C4FF0C
:100AC00034BF012000205DF808FB00BF4FEA410C55
:100AD0007FEA6C5C02D150EA013C0AD14FEA430C38
:100AE0007FEA6C5C02D152EA033C02D14FF0000075
:100AF00070474FF0010070474FEA410212F50012B3
:100B000015D211D56FF47873B3EB625212D94FEA54
:100B1000C12343F0004343EA505311F0004F23FA3E
:100B200002F018BF404270474FF00000704750EA93
:100B3000013005D111F0004008BF6FF00040704750
:100B40004FF00000704700BF7047FEE7FEE7FEE78A
:100B5000FEE770477047704708B500F047F908BDD9
:100B600010B540F2026000F041FC40F2026000F07B
:100B70003DFC0021012000F0FBFB104CA0230122D2
:100B80001821204600F098FB402301220421204632
:100B900000F092FB0E2301221021204600F08CFB76
:100BA0000221204600F0D9FB0821204600F0D7FBA7
:100BB0000421204600F0D3FB10BD00BF0008014017
:100BC00008B540F2036000F011FC502301222821F7
:100BD000014800F071FB08BD000C014008B54FF45E
:100BE000C06000F003FC01210D4800F0C1FB40F2A1
:100BF000036000F0FBFB042303221021094800F0EE
:100C00005BFB40F2026000F0F1FB4FF480730322C3
:100C10001821054800F050FBFFF7D2FF08BD00BFC8
:100C200000023000000C01400008014008B500F04F
:100C300013FC00F0FDFD00F029FE00F0ADF8FFF719
:100C4000CDFF00F0F3F800F021F900F0C7FA4FF003
:100C5000806000F0F7FB2F4800F01EFB2E4C2F4B5E
:100C60001B682F4A1421204601F014FB052211466F
:100C7000204600F043FA00F0A5FA2A4C0421204651
:100C800000F06DFB4FF47A7000F0A6F804212046C6
:100C900000F063FB1FE00421224800F060FB4FF4EA
:100CA0007A7000F099F8002000F096F905220021F2
:100CB0001D4800F023FA192200211C4800F01EFAFA
:100CC00000F080FA0421174800F04BFBE0B9042142
:100CD000144800F042FB4FF47A7000F07DF80020D9
:100CE00000F07AF90F220021114800F007FA00F015
:100CF00069FA04210B4800F034FB0028CBD1042111
:100D0000084800F02AFBCAE70421064800F027FB48
:100D1000E1E700BF50470008F40100201402002062
:100D200020470008000C01403847000844470008ED
:100D30003047000870B50E46154600240AE005212C
:100D4000064800F0F8FC0128F9D0044800F0EFFC58
:100D500030550134AC42F2DB284670BD003801400A
:100D60000346064A126822B1044A1068034413601D
:100D70007047024A02491160F6E700BFF001002007
:100D8000400600204FF0FF307047002070470120E0
:100D9000704700207047FEE70C4B1B680C4AA2FB13
:100DA00003239B09013BB3F1807F0DD24FF0E0227A
:100DB0005361084BF02183F8231000219161072033
:100DC000106183F823107047FEE700BF0000002089
:100DD000D34D621000ED00E0034B1860024B1B681E
:100DE000002BFBD1704700BF10020020034B1B6893
:100DF0001BB1024A1368013B1360704710020020C8
:100E000070B50E46154600240AE0315D064800F034
:100E10008AFC0721044800F08EFC0028F9D0013438
:100E2000AC42F2DB284670BD0038014010B540F2FC
:100E3000026000F0DBFA40F20E6000F0D7FA124CCC
:100E40004FF4007303221821204600F035FA4FF4C6
:100E5000806303220421204600F02EFA04F540545A
:100E6000204600F0D1FB4FF4E131204600F012FCA7
:100E70000421204600F051FC0821204600F047FCE8
:100E8000204600F03FFC10BD0008014010B5FFF700
:100E900067FE40F20C6000F0A9FA1C4C204600F0FE
:100EA00067FB236823F001032360236823F0020318
:100EB0002360236843F004032360236843F028037E
:100EC0002360236823F080032360236843F40073C6
:100ED0002360236843F480732360236823F48063D2
:100EE0002360236823F400632360236843F40043F2
:100EF0002360236843F480432360236843F0400366
:100F00002360204600F05EFB10BD00BF00300140B2
:100F100010B504460221054800F05BFB0028F9D01B
:100F20002146024800F053FB10BD00BF00300140D5
:100F300010B50121084800F058FB012800D010BD71
:100F4000054C0121204600F05CFB204600F048FBE8
:100F5000024B00221A70F2E7001000401802002035
:100F600008B5FFF7E5FF08BD002303E0034AD054AE
:100F700001339BB2B3F5806FF8D370471C02002099
:100F800038B50546084C0221204600F0E8F9082152
:100F9000204600F0E4F92846FFF7BAFF0221204678
:100FA00000F0DBF938BD00BF0008014038B5054648
:100FB000084C0221204600F0D2F90821204600F01A
:100FC000CCF92846FFF7A4FF0221204600F0C5F91E
:100FD00038BD00BF0008014008B518B1FF20FFF779
:100FE000C3FF08BD0020FFF7BFFFFAE738B504468E
:100FF000FFF7BEF85FFA80FE002318460FE0094DA8
:101000002A68B5F90AC014F8011BB5F90850491B44
:1010100001FB0C2212791044C0B20133DBB27345DC
:10102000EDD338BD1C06002010F0800F1AD13F29E7
:1010300018D85AB1CB0800EBC31001F00701012307
:101040008B40094A115C194311547047CB0800EBDF
:10105000C31001F0070101238B40034A115C21EA10
:1010600003011154704700BF1C0200202DE9F0411C
:1010700088461746204A1668B2F90A30B2F90820A5
:10108000801A00FB03F304331E4400252DE0E11910
:1010900005EB08000022C9B2C0B2FFF7C5FF01345A
:1010A000E4B2154BB3F906309C421CDAE3085A1C33
:1010B0001149B1F90A30013B05FB03F3B1F9041002
:1010C00093FBF1F31344F35C04F00702134113F0B4
:1010D000010FDCD0E11905EB08000122C9B2C0B252
:1010E000FFF7A2FFDBE70135EDB23378AB4201D960
:1010F0000024D6E7BDE8F0811C0600202DE9F04170
:1011000006460D461746FFF733F85FFA80F8FE2DC6
:1011100005D0FF2D0AD0FF2F12D000242FE030463B
:10112000FFF764FFC0F17F05EDB2F2E73046FFF74D
:101130005DFFC0F17F0000EBD070C0F34705EAE728
:10114000114BB3F90670C7F1400707EBD777C7F328
:101150004707E2E73A4629463078FFF787FF0A4912
:101160000B68B1F90A0016F8012BB1F90810521AF0
:1011700002FB003319790D44EDB20134E4B2444569
:10118000E8D3BDE8F08100BF1C06002038B5054655
:101190000220FFF7F5FE1020FFF7F2FE45F0B00049
:1011A000FFF7EEFE002407E004EBC513044AD05C11
:1011B000FFF7FCFE013424B27F2CF5DD38BD00BF03
:1011C0001C02002010B5002404E02046FFF7DEFFDB
:1011D0000134E4B2072CF8D910BD000010B52D4C35
:1011E0000421204600F0BBF80320FFF7F5FD0421A1
:1011F000204600F0B2F80320FFF7EEFDAE20FFF727
:10120000BFFE8120FFF7BCFEFF20FFF7B9FEA6203E
:10121000FFF7B6FEA420FFF7B3FE2020FFF7B0FED5
:101220000020FFF7ADFE4020FFF7AAFEA020FFF749
:10123000A7FEA820FFF7A4FE3F20FFF7A1FEC820CD
:10124000FFF79EFED320FFF79BFE0020FFF798FEDE
:10125000DA20FFF795FE1220FFF792FED520FFF768
:101260008FFE8020FFF78CFE8D20FFF789FE222065
:10127000FFF786FEDB20FFF783FE2020FFF780FECE
:10128000AF20FFF77DFE0020FFF7A6FEFFF79AFFD5
:10129000012010BD00080140064B186002789A80BA
:1012A0004278DA8082781A81C2785A8100221A73D1
:1012B000704700BF1C06002070B501F00F0E11F042
:1012C000100F03D0042A03D04EEA020E002209E0D8
:1012D0004EF0030EC26B1A43C263F7E74461056028
:1012E000013292B2072A14D8012494401C40F7D04E
:1012F000066895004FF00F0C0CFA05FC26EA0C0668
:101300000EFA05F535432829E8D04829E7D10461CC
:10131000E5E7082203E044614560013292B20F2AFA
:101320001AD84FF0010C0CFA02FC1CEA0304F4D0AA
:101330004568A2F1080C4FEA8C0C0F2606FA0CF651
:1013400025EA06050EFA0CFC4CEA05052829E2D030
:101350004829E1D10461DFE770BD01617047416157
:101360007047C3680B4201D00120704700207047CE
:1013700010B5002816DB1C4B5B68C0F303421FFA54
:1013800080FE00F4401CBCF5401F0ED010F4801FFE
:101390001DD04FF0030C0CFA02F223EA020343F0D3
:1013A000E06309E0104BDB69E7E723F0E0630E4CF4
:1013B000626822F0E062626021B1420D12010EFA11
:1013C00002F2134300280BDB074A536010BD420DA5
:1013D00012010EFA02F223EA020343F0E063EBE7A4
:1013E000014AD361F2E700BF00000140830903F125
:1013F000804303F504331A6800F01F00012101FA4D
:1014000000F0104318607047830903F1804303F52F
:1014100004331A6800F01F00012101FA00F01043A4
:1014200018607047830903F1804303F504331A6899
:1014300000F01F00012101FA00F022EA000018600C
:1014400070470000034A536823F0E063034353608E
:10145000704700BF00100240024A536A43F0807395
:10146000536270470010024010B588B084463B4C70
:1014700094E80F000DF1200E0EE90F0002AB1034BE
:1014800094E8030083E803006B4683E80300344BD1
:101490005B68C3F38103022B23D0324830494B6889
:1014A000C3F3031320336B4413F8102C20FA02F219
:1014B0004B68C3F3022320336B4413F8183C22FA21
:1014C00003F44B68C3F3C22320336B4413F8203C6E
:1014D00022FA03F3BCF1030F37D8DFE80CF03938F8
:1014E0003B3D1F4B5B6813F4803F0ED01C4BDB6A07
:1014F00013F0804F07D11B49194B5B6813F4003F71
:1015000004D0194902E01949F6E71749144A53680B
:10151000C3F38343526812F0006F01D043F010030D
:101520000F4A526812F0804F01D043F020030E2B77
:1015300003D8981C01FB00F0B0E7A3F10F022F2A9B
:1015400001D8581CF6E73F20F4E7002000E01046E1
:1015500008B010BD2046FBE71846F9E70847000829
:101560000010024000127A0000093D00006CDC020D
:1015700008B5134B98421AD003F57443984204D02F
:10158000A3F57843984209D008BD4FF44370FFF7A4
:101590003BFF4FF44370FFF745FFF5E740F20E4085
:1015A000FFF732FF40F20E40FFF73CFFECE740F25E
:1015B0000F40FFF729FF40F20F40FFF733FFE3E74B
:1015C000003C0040036843F0400303607047C16083
:1015D000704783680B4201D001207047002070479C
:1015E000036823F0010303607047C3680B4002697E
:1015F0000A4202D01BB9002070470020704701202A
:101600007047C9430161704708B5204B98422AD002
:101610000FD91F4B98422FD003F56843984207D14A
:1016200040F20E30FFF7F0FE40F20E30FFF7FAFE08
:1016300008BDA3F5006398420CD003F5806398427F
:10164000F6D140F21240FFF7DFFE40F21240FFF702
:10165000E9FEEDE740F21140FFF7D6FE40F21140FF
:10166000FFF7E0FEE4E740F21340FFF7CDFE40F263
:101670001340FFF7D7FEDBE740F21440FFF7C4FE4C
:1016800040F21440FFF7CEFED2E700BF004C00400E
:101690000050004038B504460D46184B984223D000
:1016A00010D9174B984223D003F56843984223D1B1
:1016B0000320FFF7D9FE00EB5500B0FBF5F189B22E
:1016C000A16038BDA3F50063984209D003F580639B
:1016D000984203D10220FFF7C7FEECE70020EAE7BB
:1016E0000220FFF7C1FEE6E70220FFF7BDFEE2E7BA
:1016F0000220FFF7B9FEDEE70020DCE7004C0040E7
:1017000000500040C36843F40053C3607047C3688F
:1017100023F008030B43C3607047C36823F004033E
:101720000B43C3607047C1F30801416070474068D4
:10173000C0F3080070478B091B5801F01F0123FA02
:1017400001F111F0010F01D0012070470020704716
:10175000334A136843F48033136000230133304A63
:10176000126812F4003F03D14FF6FF729342F5D195
:101770002B4B1B6813F4003F00D1FEE7284BDA69BE
:1017800042F08052DA6127490A6842F440420A6016
:101790005A685A605A685A605A6842F480625A60BD
:1017A0005A6822F440325A605A6842F440325A6011
:1017B0005A6822F0904222F470125A605A6842F03D
:1017C000036242F480225A601A6842F080721A6002
:1017D000134B1B6813F0007FFAD0124A136843F4CE
:1017E000803313600F4B5B6813F4803FFAD00D4ACF
:1017F000136843F4003313600A4B5B6813F4003F33
:10180000FAD0074B5A6822F003025A605A6842F035
:1018100002025A60024B5B6813F0080FFAD070475F
:10182000001002400070004008B5FFF791FF08BDAE
:1018300000B583B0144B1A6842F001021A605A686E
:1018400042F080025A600023019302E0019B0133C1
:101850000193019A44F61F639A42F7D90A4B00227A
:101860005A60DA621A6822F0847222F480321A60B6
:101870004FF41F029A601A6822F480221A60FFF760
:10188000D3FF03B05DF804FB00100240234B5B68FC
:10189000C3F38103012B0AD0022B0CD01BB1204BC8
:1018A000204A1A6070471E4B1E4A1A6070471C4B34
:1018B0001C4A1A607047194B5B6813F4803F0ED0C6
:1018C000164BDB6A13F0804F07D11649134B5B6848
:1018D00013F4003F04D0144902E01449F6E712491A
:1018E0000E4A5368C3F38343526812F0006F01D06D
:1018F00043F01003094A526812F0804F01D043F0C0
:1019000020030E2B08D901333D2B00D93F2301FBC7
:1019100003F3034A136070470233F5E700100240F7
:101920000000002000127A0000093D00006CDC027B
:10193000DFF834D0002103E00C4B5B5843500431F6
:101940000B480C4B42189A42F6D30B4A02E0002394
:1019500042F8043B094B9A42F9D3FFF769FF00F0C4
:1019600011F8FFF763F9704700C000201C5700080A
:1019700000000020D4010020D40100203C060020FB
:10198000FEE7000070B50D4D0D4C641BA410002641
:10199000A64209D10B4D0C4C02F0AAFE641BA41008
:1019A0000026A64205D170BD55F8043B9847013684
:1019B000EEE755F8043B98470136F2E71457000864
:1019C000145700081457000818570008024403462B
:1019D000934200D1704703F8011BF9E72DE9F04766
:1019E00088B0002B1F461446B8BF03F10043129A7B
:1019F000109DDDF84CA0B6BF1F4600232D231370A9
:101A0000149B23F02008B8F1460F05D0B8F1450F1C
:101A100000D10135022300E0032307AA049206AA9D
:101A2000CDE902A2CDE9003522463B4600F0F0FCAC
:101A3000B8F1470F064602D1119BDB0722D5B8F15A
:101A4000460F06EB050910D13378302B0AD100225E
:101A5000002320463946FFF707F818B9C5F10105FC
:101A6000CAF80050DAF800309944002200232046DA
:101A70003946FEF7F9FF08B1CDF81C903022079BDC
:101A80004B4507D3079B159A9B1B3046136008B044
:101A9000BDE8F087591C07911A70F0E7F7B50346C7
:101AA0000029B8BF494203F8022BB4BF2D222B22D4
:101AB000092942702ADD0DF10704A4460A27A6462B
:101AC0000A4691FBF7F607FB16153035632A04F139
:101AD000FF340EF8015C3146F1DC3031AEF1020525
:101AE00004F8011C441C294661450AD30DF1090282
:101AF000A2EB0E02654588BF00221344181A03B0FA
:101B0000F0BD11F8012B04F8012FEDE7302330313F
:101B10008370C170031DF1E72DE9F04F91B00C46C1
:101B2000DDF8688016461F46054601F05FFA036837
:101B300009931846FEF71CFB00230E93D8F80030DB
:101B40000A90073323F0070303F1080294F8189072
:101B5000D4F800B0C8F80020D3E90023C4E9122368
:101B6000D4E9128A2AF000430B930B999C4B4FF057
:101B7000FF324046FEF7AAFF70BB994B0B994FF01E
:101B8000FF324046FEF784FF30BB00220023404670
:101B90005146FEF773FF10B12D2384F84330914B6B
:101BA0009148B9F1470F94BF9846804603232361BB
:101BB0002BF0040323604FF0000A009733460FAA6E
:101BC0002146284600F0D2F9013040F08F804FF0D6
:101BD000FF3011B0BDE8F08F4246534640465146B3
:101BE000FEF774FF40B1BAF1000FBCBF2D2384F89B
:101BF00043307E487E4BD4E763685A1C09F0DF010E
:101C000042D106236360002206920EAACDE9049217
:101C10000DAA4BF4806303920DF13302CDE901323A
:101C20002360636800934246534628460B91FFF7B2
:101C3000D5FE0B99472980460D9908D1C81C02DBB7
:101C40006368994240DDA9F102095FFA89F9B9F1A7
:101C5000650F1FD801394A4604F150000D91FFF776
:101C60001DFF0E9A1318012A8246236102DC2268A6
:101C7000D20701D5013323619DF83330002B9CD06E
:101C80002D2384F8433098E74729BCD1002BBAD1E3
:101C90000123B7E7B9F1660F18D1002963680BDD9E
:101CA000216113B92268D00702D501330B442361A7
:101CB000A1654FF0000ADFE713B92268D20701D50A
:101CC0000233F4E70123F2E74FF067090E9B9942D4
:101CD00005DB23682161D807EAD54B1CE7E700291B
:101CE000D4BFC1F1020201221344E0E723685A0580
:101CF00007D42369424631462846B84701302BD1E4
:101D000065E7B9F1650F40F2DC80D4E912010022E9
:101D10000023FEF7A9FE002833D0364A01233146BE
:101D20002846B84701303FF452AFDDE90D239A420F
:101D300002DB2368D8070FD5DDE9092331462846A1
:101D4000B84701303FF443AF4FF0000804F11A09DF
:101D50000E9B013B434509DC23689B0700F1018191
:101D6000E0680F9B9842B8BF184632E701234A4605
:101D700031462846B84701303FF429AF08F1010841
:101D8000E6E70D9B002B37DC1A4A01233146284633
:101D9000B84701303FF41BAFDDE90D23134302D1F7
:101DA0002368D907D8D5DDE9092331462846B84745
:101DB00001303FF40CAF4FF0000904F11A0A0D9BFB
:101DC0005B424B4501DC0E9B94E7012352463146B2
:101DD0002846B84701303FF4FAAE09F10109EEE7B1
:101DE000FFFFEF7FF8520008FC5200080453000880
:101DF00000530008085300080E9AA36D9A42A8BF2A
:101E00001A46002A914637DC4FF0000B29EAE9799F
:101E100004F11A02D4F858A0AAEB09035B4533DC9D
:101E2000DDE90D239A423BDB2368DA0738D40E9BA9
:101E30000D99A3EB0A02A3EB01099145A8BF9146B6
:101E4000B9F1000F34DC4FF0000829EAE97904F118
:101E50001A0ADDE90D239B1AA3EB090343457FF71B
:101E60007BAF0123524631462846B84701303FF444
:101E7000AEAE08F10108ECE713463146424628466B
:101E8000B8470130C0D1A2E60123314628460B9263
:101E9000B84701303FF49BAE0B9A0BF1010BB9E749
:101EA000DDE9092331462846B8470130BFD18EE627
:101EB0004B4608EB0A0231462846B8470130C2D1EA
:101EC00085E60E9A012A01DCDB0737D5012342465D
:101ED00031462846B84701303FF479AEDDE90923A1
:101EE00031462846B84701303FF471AED4E91201BB
:101EF00000220023FEF7B8FDD8B90E9B08F10102BD
:101F0000013B31462846B84701300ED15FE6012338
:101F10004A4631462846B84701303FF458AE08F1EA
:101F200001080E9B013B4345F1DC534604F150028E
:101F3000E1E64FF0000804F11A09F2E701234246F6
:101F4000DFE701234A4631462846B84701303FF4CF
:101F50003EAE08F10108E3680F995B1A4345F0DCD7
:101F6000FEE64FF0000804F11909F4E72DE9F04707
:101F7000164699468A680B69DDF820809342B8BFFF
:101F80001346336091F8432007460C460AB10133EB
:101F900033602368990642BF336802333360256893
:101FA00015F0060506D104F1190AE36832689B1A98
:101FB000AB4226DC94F84320131E226818BF01238D
:101FC00092062BD404F1430249463846C0470130FB
:101FD0001ED02368E568326803F00603042B08BFAF
:101FE000AD1AA36822690CBF25EAE5750025934266
:101FF000C4BF9B1AED1800261A34B5421AD100202E
:1020000008E00123524649463846C047013003D113
:102010004FF0FF30BDE8F0870135C6E7E1185A1CE4
:10202000302081F84300224494F8451082F8431090
:102030000233C7E70123224649463846C0470130EC
:10204000E6D00136D9E700002DE9FF470F7E0C9D51
:10205000782F914680460C469A4601F1430207D8F4
:10206000622F0AD8002F00F0D880582F00F0A380EC
:1020700004F1420584F842703AE0A7F16303152B9E
:10208000F6D801A151F823F0E1200008F52000085E
:1020900071200008712000087120000871200008DC
:1020A000F520000871200008712000087120000848
:1020B000712000080122000825210008E321000802
:1020C00071200008712000082322000871200008F8
:1020D000252100087120000871200008EB2100086C
:1020E0002B681A1D1B682A6004F1420584F84230EF
:1020F0000123A3E020682968060601F104030AD53C
:102100000E682B60002E03DA2D23764284F84330CC
:102110005E480A2319E00E682B6010F0400F18BFCC
:1021200036B2EFE72B682068191D2960010601D53A
:102130001E6802E04606FBD51E8854486F2F0CBF70
:1021400008230A23002184F843106568A560002D48
:10215000A2BF216821F0040121600EB9002D4DD0ED
:102160001546B6FBF3F103FB1167C75D05F8017D6A
:102170003746BB420E46F4D9082B0BD12368DE0745
:1021800008D5236961689942DEBF302305F8013C18
:1021900005F1FF35521B2261CDF800A04B4603AA82
:1021A00021464046FFF7E2FE01304CD14FF0FF30B0
:1021B00004B0BDE8F087354881F845702968236888
:1021C00051F8046B29601D0614D5DF0744BF43F0A6
:1021D000200323601EB9236823F02003236010230B
:1021E000B0E7236843F0200323607823284884F86D
:1021F0004530E3E7590648BFB6B2E6E71546BBE708
:102200002B6826686169181D286035061B6801D592
:10221000196002E07006FBD5198000232361154682
:10222000BAE72B681A1D2A601D68626800212846DB
:10223000FDF7A6FF08B1401B6060636823610023BF
:1022400084F84330A8E723692A4649464046D047E8
:102250000130ABD023689B0713D4E068039B9842FE
:10226000B8BF1846A4E70123324649464046D04746
:1022700001309BD00135E36803995B1AAB42F2DC75
:10228000EBE7002504F11906F5E700BF0A53000843
:102290001B5300080CB430B5174B0C1E1D689DB0C5
:1022A00008DA8B232B604FF0FF301DB0BDE83040C3
:1022B00002B070474FF40273ADF8143014BF04F14C
:1022C000FF332346049307934FF6FF730290069063
:1022D000ADF81630209A21AB02A92846019301F0EF
:1022E0006BFB431CBCBF8B232B60002CDDD0029BFF
:1022F00000221A70D9E700BF040000202DE9F74F33
:1023000003690C69A34207467DDB013C01F1140817
:1023100000F1140505EB8403019358F8243055F8B7
:10232000242001339A424FEA840B08EB8409B2FB64
:10233000F3F62ED34FF0000E4046AC46F24650F86E
:10234000042B93B206FB03E34FEA134E120C9BB22D
:1023500006FB02E2AAEB0303DCF800A04FEA124EF0
:1023600092B213FA8AF3C2EB1A4202EB23429BB2F7
:1023700043EA024381454CF8043B4FEA224ADED24D
:1023800055F80B302BB9019B043B9D421A462ED3C6
:102390003C61384601F0C2F8002824DB01362846AB
:1023A0004FF0000C58F8042BD0F800E093B2ACEBDF
:1023B0000303120C13FA8EF3C2EB1E4202EB23420C
:1023C0009BB243EA0243C14540F8043B4FEA224C2A
:1023D000E8D255F8242005EB840322B9043B9D4242
:1023E0001A460AD33C61304603B0BDE8F08F12684C
:1023F000043B002ACCD1013CC7E71268043B002A09
:10240000F0D1013CEBE70020EEE700000000000007
:102410002DE9F04F446A99B016461F46CDE904678E
:10242000DDF89480054674B9102000F0E3FD024603
:10243000686220B9A84BEA21A84801F0CDFBC0E9A9
:1024400001440460C4606B6A196851B15A684A60FB
:10245000012393408B60284600F022FE6B6A002225
:102460001A603B1EB9BF23F0004305930023C8F850
:102470000030DDF814909A4BBCBF0122C8F8002050
:1024800033EA090319D1249A42F20F731360C9F396
:102490001303334300F08085269B53B9914B22E010
:1024A000914B03930833269A1360039819B0BDE843
:1024B000F08F8C4B03930333F5E7DDE90434CDE96A
:1024C0000C34DDE90C0100220023FEF7CDFA804632
:1024D00058B1249A01231360269B002B00F05985E4
:1024E00082481860431E0393DFE716AB019317ABD6
:1024F00000932846DDE90C2301F0B4F8C9F30A542F
:102500008346002C7ED00D9BCDF84C80C3F3130383
:10251000DDE90C0143F07F5141F44011A4F2FF3496
:10252000734B0022FDF780FE65A3D3E90023FEF77D
:1025300033F865A3D3E90023FDF778FE064620466D
:102540000F46FDF7BFFF62A3D3E90023FEF724F88F
:1025500002460B4630463946FDF768FE06460F46F2
:10256000FEF7CAFA00228246002330463946FEF7BB
:1025700085FA48B15046FDF7A5FF32463B46FEF7C7
:1025800073FA08B90AF1FF3ABAF1160F57D8594B46
:1025900003EBCA03D3E90023DDE90C01FEF76EFA71
:1025A00000284ED00AF1FF3A00230F93169B1C1B04
:1025B000631E099345BFC4F1010306930023002362
:1025C0004CBF09930693BAF1000F3CDB099BCDF891
:1025D00038A05344099300230A93229B092B00F24D
:1025E0008D80052BC4BF043B2293229BA3F10203E1
:1025F000CCBF00240124032B00F28C80DFE803F021
:102600002D4F4D5BDDE916431C4404F23243202B71
:10261000C3BFC3F1400304F2124009FA03F3C3F14C
:102620002003C6BF26FA00F0184306FA03F0FDF7B0
:1026300039FF0123A1F1F871013C139370E70123E5
:10264000B3E70F90B2E7069BA3EB0A030693CAF128
:1026500000030A9300230E93BFE700230B93239BF1
:10266000002B5ADC4FF00109CDF820904B46CDF8F5
:102670008C90686A00224260042202F114069E4295
:10268000416850D9284600F0CBFC039000284ED179
:10269000194B02464FF4D571CEE60123DEE7002345
:1026A0000B93239B0AEB030909F10103012B089308
:1026B000B8BF0123DDE70123F2E700BFAFF30080DD
:1026C00061436F63A787D23FB3C8608B288AC63F38
:1026D000FB799F501344D33F3953000850530008EF
:1026E0000000F07F355300082C5300080953000800
:1026F0000000F83F88540008CE530008012400234E
:1027000022930B944FF0FF390022CDF82090122332
:102710002392AEE701230B93F4E7DDF88C90CDF81C
:1027200020904B46A5E7013141605200A5E76B6A56
:10273000039A1A60089B0E2B00F2A880002C00F070
:10274000A580BAF1000F34DD9A4A0AF00F0302EBBC
:10275000C303D3E900341AF4807FCDE910344FEA83
:102760002A1416D0944BDDE90C01D3E90823FEF7B7
:102770003DF8CDE9040104F00F0403278E4E54B94F
:10278000DDE91023DDE90401FEF730F8CDE90401AD
:1027900029E00227F2E7E10708D5DDE91001D6E9D3
:1027A0000023FDF7F9FECDE910010137641008366A
:1027B000E5E700F0A580CAF100047E4B7E4E04F0F0
:1027C0000F0203EBC203D3E90023DDE90C01FDF79F
:1027D000E3FECDE90401241100230227002C40F080
:1027E0008480002BD2D10F9B002B00F08B80DDE981
:1027F0000434CDE91034DDE91001704B0022FEF7FE
:102800003DF900287ED0089B002B7BD0B9F1000F4A
:1028100038DDDDE910016A4B0022FDF7BDFECDE990
:1028200004010AF1FF3801374C463846FDF74AFEED
:10283000DDE90423FDF7B0FE624B0022FDF7F6FC54
:10284000A1F15076CDE910011196002C5DD1DDE9A2
:1028500004015D4B0022FDF7E7FC02460B46CDE983
:102860000423109A3346FEF727F9002840F09C8293
:10287000DDE90401109A06F10043FEF7FFF8002895
:1028800040F09082DDE90C34CDE90434179B002B35
:10289000C0F25281BAF10E0F00F34E81454B03EBAB
:1028A000CA03D3E90034CDE90634239B002B80F220
:1028B000DB80089B002B00F3D78040F07282424BF4
:1028C0000022DDE90601FDF767FEDDE90423FEF7DE
:1028D000E9F8089C2646002840F04882039F3123EF
:1028E00007F8013B0AF1010A44E2E20705D5D6E9FF
:1028F0000023FDF751FE01370123641008366DE710
:10290000022770E7089CD0468FE70399294B2144A2
:1029100012910B9903EBC403DDE9106753E902231D
:10292000002955D029490020FDF760FF3B4632467B
:10293000FDF77AFCCDE91001039FDDE90401FEF704
:10294000DBF80446FDF7BEFD02460B46DDE9040157
:10295000FDF76AFC303402460B46CDE9042307F844
:10296000014BDDE91023FEF789F8002874D1DDE979
:10297000042312490020FDF757FCDDE91023FEF780
:102980007DF8002840F0B780129B9F423FF47AAF59
:10299000DDE910010A4B0022FDF7FEFD084BCDE9F1
:1029A00010010022DDE90401FDF7F6FDCDE9040187
:1029B000C3E700BF88540008605400080000F03FDF
:1029C0000000244000001C40000014400000E03FD4
:1029D00030463946FDF7E0FDCDE91001129B039C1E
:1029E0001493DDE90401FEF787F81590FDF76AFD01
:1029F00002460B46DDE90401FDF716FC159B30335A
:102A000004F8013B129B9C4206460F464FF0000221
:102A100024D1A44BDDE91001FDF708FC02460B466A
:102A200030463946FEF748F8002863D1DDE9102327
:102A30009C490020FDF7F8FB02460B46304639461C
:102A4000FEF71CF800283FF41DAF149F7B1E149363
:102A500017F8013C302BF8D0C2463BE0924BFDF713
:102A60009BFDCDE90401BCE7DDE90489039FDDE9B5
:102A7000062340464946FDF7B9FEFEF73DF80446F9
:102A8000FDF720FDDDE90623FDF786FD04F13006A4
:102A900002460B4640464946FDF7C6FB07F8016B68
:102AA000039EDDF820C0BE1BB44502460B4636D15E
:102AB000FDF7BCFBDDE9062380468946FDF7FCFFF8
:102AC00058BBDDE9062340464946FDF7CDFF08B176
:102AD000E10722D42846594600F0E2FA00233B7071
:102AE000249B0AF101001860269B002B3FF4DDAC0B
:102AF0001F60DAE427463B461F4613F8012D392AAA
:102B000007D1039A9A42F7D10399302208F10108BC
:102B10000A701A7801321A709EE7D046EBE7624BD2
:102B20000022FDF739FD0022002380468946FDF78B
:102B30009BFF00289BD0CDE70B9A002A00F0D080A5
:102B4000229A012A00F3B280139A002A00F0A6808C
:102B500003F233430A9C069F069A1A440692099A86
:102B600001211A442846099200F050FB0646002F26
:102B70000CDD099B002B09DDBB42069AA8BF3B4632
:102B8000D21A0692099AFF1AD31A09930A9BF3B133
:102B90000B9B002B00F0A880002C10DD3146224654
:102BA000284600F0F1FB5A4601460646284600F04A
:102BB00043FB59468046284600F072FAC3460A9BFA
:102BC0001A1B04D05946284600F0DEFB834601213B
:102BD000284600F01BFB0E9B002B044640F386802A
:102BE0001A460146284600F0CFFB229B012B0446E3
:102BF0007FDD4FF00008236904EB8303186900F0C0
:102C0000B7FAC0F12000099B184410F01F0000F033
:102C10009280C0F12003042B40F38A80C0F11C0095
:102C2000069B03440693099B034407440993069BB0
:102C3000002B05DD59461A46284600F0FFFB834667
:102C4000099B002B05DD21461A46284600F0F6FBBD
:102C500004460F9B002B70D02146584600F05EFCC6
:102C600000286ADA002359460A22284600F03AFA78
:102C70000B9B0AF1FF3A8346002B00F0948131460A
:102C800000230A22284600F02DFAB9F1000F06466B
:102C900000F39380229B022B57DC8EE0169BC3F13E
:102CA000360357E70000E03F00002440089B5C1E0D
:102CB0000A9BA342BFBF0A9B0A94E21A0E9BB6BFAF
:102CC0009B181C1B0E93089BB8BF0024002BB9BF98
:102CD000069B089A069F089BBCBF9F1A00233BE7F0
:102CE0000A9C069F0B9E42E70A9A6BE7229B012BE8
:102CF00019DC049BBBB9059BC3F313039BB9059B6C
:102D000023F000431B0D1B0583B1069B0133069383
:102D1000099B013309934FF001080E9B002B7FF4B0
:102D20006AAF01206FE74FF00008F6E79846F4E736
:102D30003FF47DAF18461C3072E7089B002B36DC51
:102D4000229B022B33DDDDF82090B9F1000F0DD16D
:102D500021464B460522284600F0C4F901460446A8
:102D6000584600F0DBFB00283FF7B8AD239B039FDC
:102D70006FEA030A4FF000082146284600F090F958
:102D8000002E3FF4A7AEB8F1000F05D0B04503D038
:102D90004146284600F084F93146284600F080F983
:102DA00098E600242646E1E7C246264696E50B9BB8
:102DB000DDF82090002B00F0FD80002F05DD31466E
:102DC0003A46284600F03AFB0646B8F1000F5CD0C0
:102DD0007168284600F024F9074628B9804B02465E
:102DE00040F2EA21FFF728BB32690232920006F175
:102DF0000C010C3000F006F901223946284600F09B
:102E00001DFB039B01330893039B4B440A93049BD4
:102E100003F00103B04609930646089B2146013B97
:102E200058460493FFF76AFA03463033069041464A
:102E300058460B9300F072FB3246814621462846E5
:102E400000F088FBC2680B9B074602BB0146584650
:102E500000F064FB0B9B024639462846CDE90B3255
:102E600000F01EF9229B0C9A089F43EA0201099B7D
:102E70000B430B9B0DD1392B29D0B9F1000F01DD8C
:102E8000069B3133049A137076E73046B9E7012286
:102E9000E2E7B9F1000F06DB229941EA0909099935
:102EA00059EA010120D1002AECDD594601222846C9
:102EB000089300F0C3FA2146834600F02FFB002858
:102EC000089B02DCDED1DA07DCD5392BD8D1049A95
:102ED000392313703B461F46013B17F8012C392A52
:102EE00050D001321A7047E7002A03DD392BEED0AB
:102EF0000133C7E7089A0A9902F8013C8A422AD0AE
:102F0000594600230A22284600F0ECF8B0458346D3
:102F10004FF000034FF00A024146284607D100F067
:102F2000E1F880460646089B0133089375E700F0F8
:102F3000D9F83146804600230A22284600F0D2F80C
:102F40000646F0E7B9F1000F039ACCBF4F460127C0
:102F500017444FF00008594601222846089300F014
:102F60006DFA2146834600F0D9FA0028B2DC02D17E
:102F7000089BDB07AED43B461F4613F8012D302AD1
:102F8000FAD0F9E6039A9A42A5D10AF1010A31234F
:102F900079E7144BFFF7A7BA269B002B7FF480AA92
:102FA000114BFFF7A0BAB9F1000F03DC229B022BF3
:102FB0003FF7CBAE039F21465846FFF79FF900F13C
:102FC000300307F8013B039ABA1A9145BADD594616
:102FD00000230A22284600F085F88346EBE700BF6D
:102FE000CE530008085300082C53000800487047CF
:102FF00058010020024B0146186800F00DBC00BFCC
:10300000040000200A44914200F1FF3300D17047D0
:1030100010B511F8014B03F8014F9142F9D110BDE1
:1030200070B5466A04460D4676B91020FFF7E2FFF8
:103030000246606220B9184B1848662100F0CCFDAA
:10304000C0E901660660C660666AF36883B1636AB8
:10305000DB6853F82500B8B9012101FA05F6721DA5
:103060009200204600F05AFB60B1C0E901560EE024
:1030700021220421204600F051FB636AF060DB68E6
:10308000002BE4D1002070BD026843F82520002306
:10309000C0E90333F7E700BF39530008DF530008E6
:1030A00070B5466A05460C4676B91020FFF7A2FFB8
:1030B0000246686220B9094B09488A2100F08CFD5C
:1030C000C0E901660660C6603CB16B6A6268DB6895
:1030D00053F82210216043F8224070BD3953000894
:1030E000DF5300082DE9F0410D6907460C461E46E6
:1030F00001F1140C0020DCF8003099B202FB0161F0
:103100001E0C0B0C02FB063389B2013001EB0341AC
:1031100085424CF8041B4FEA1346ECDC0EB3A3685F
:10312000AB4219DC616838460131FFF779FF804610
:1031300028B902460C4B0D48B52100F04DFD22691F
:10314000023204F10C0192000C30FFF75BFF2146C4
:103150003846FFF7A5FF444604EB850301355E6161
:1031600025612046BDE8F081CE530008DF530008FA
:10317000020C12040346CAB90304102013F07F4F57
:1031800004BF1B02083013F0704F04BF1B01043052
:1031900013F0404F04BF9B000230002B05DB13F0FF
:1031A000804F00F1010008BF202070470020E5E7B4
:1031B0000368024613F007000BD0D90721D4980703
:1031C00049BF5B089B08012013605CBF13600220AD
:1031D000704799B209B91B0C1020D9B209B908304F
:1031E0001B0A190704BF1B090430990704BF9B0879
:1031F0000230D90703D45B0800F1010003D013604B
:1032000070470020704720207047000010B50C4622
:103210000121FFF705FF024628B9054B05484FF489
:10322000A07100F0D9FC01234461036110BD00BF0F
:10323000CE530008DF5300082DE9F04F91460A698C
:10324000D9F810309A42B8BF0B460C46BCBF4C466A
:1032500099462769D9F810A0A368616807EB0A06A8
:10326000B34285B0B8BF0131FFF7DAFE30B902468C
:10327000434B444840F25D1100F0AEFC00F11405F0
:1032800005EB86082B460022434521D304F11403A5
:1032900003EB870709F1140303EB8A0202923A1B3E
:1032A000153A22F00302043204F115018F4238BFAF
:1032B00004220192029A03939A420CD8002E03DD55
:1032C00058F8043D002B59D0066105B0BDE8F08FD9
:1032D00043F8042BD8E7B3F800A0BAF1000F23D0CD
:1032E00004F1140EA9464FF0000C5EF8042BD9F837
:1032F00000101FFA82FB89B20AFB0B116144D9F856
:1033000000C0120C4FEA1C4C0AFB02C202EB114235
:1033100089B241EA0241774549F8041B4FEA124C51
:10332000E3D8019A45F802C0039AB2F80290043338
:10333000B9F1000F20D0296804F1140CAE464FF00B
:10334000000ABCF800B0BEF8022009FB0B22924430
:1033500089B241EA0A414EF8041B5CF8042BBEF81E
:103360000010120C09FB021101EB1A4167454FEAEC
:10337000114AE6D8019AA95004359BE7013E9DE722
:10338000CE530008DF5300082DE9F843154612F02C
:10339000030206460F4607D0254C013A002354F895
:1033A0002220FFF79FFE0746AD103DD0746A7CB91E
:1033B0001020FFF71FFE0246706228B91D4B1E4801
:1033C0004FF4D77100F008FCC0E901440460C46008
:1033D000D6F82480D8F808404CB940F27121304624
:1033E000FFF714FF0023C8F80800044603604FF0FD
:1033F0000009EB070AD5394622463046FFF71CFF85
:10340000394680463046FFF74BFE47466D100BD0DD
:10341000206838B9224621463046FFF70DFF20606C
:10342000C0F800900446E4E73846BDE8F88300BFE2
:103430005055000839530008DF5300082DE9F047C4
:103440000C464968236903EB6218A3680746914656
:103450004FEA621A08F10106B3420BDB3846FFF768
:10346000DFFD054648B902462A4B2B4840F2D911E8
:1034700000F0B2FB01315B00EEE7002300F1140124
:1034800000F110021846534537DB20692AEAEA7A30
:1034900004F1140319F01F0901EB8A0103EB80000A
:1034A0002FD0C9F1200E8A464FF0000C1A6802FA9C
:1034B00009F242EA0C024AF8042B53F8042B984212
:1034C00022FA0EFCF2D8031B153B23F0030304334E
:1034D00004F11502904238BF042341F803C0BCF147
:1034E000000F01D008F10206013E38462E61214648
:1034F000FFF7D6FD2846BDE8F08742F8040F0133F8
:10350000C1E7043953F8042B41F8042F9842F9D845
:10351000EAE700BFCE530008DF5300080A690346FC
:103520000069801A30B50DD11433143103EB8204D5
:1035300001EB820154F8045D51F8042D954202D04C
:1035400004D3012030BDA342F4D3FBE74FF0FF309A
:10355000F8E700002DE9F84F0D46074611462846CA
:103560001446FFF7DBFF061E11D131463846FFF740
:1035700057FD024628B9394B40F23221384800F055
:103580002BFB0123C0E904361046BDE8F88FA4BF29
:1035900023462C4638466168A6BF1D4600260126F4
:1035A000FFF73EFD024618B92C4B4FF41071E5E7CA
:1035B0002769C6602E6904F1140005F1140902F1AF
:1035C000140E00EB870C09EB86061034F24600213E
:1035D00059F8043B54F804BF1FFA83F811FA8BF131
:1035E0001B0CA1EB0808C3EB1B4303EB28431FFA9A
:1035F00088F819144E4548EA03434AF8043BE7D8D3
:10360000731B153B23F0030304331535AE4238BF5B
:103610000423184473449E46064666450ED30CF1B7
:103620000301091A21F003010338844538BF002142
:10363000194451F8043D7BB11761A5E756F8048B96
:1036400011FA88F4251405EB1845A4B244EA0544A0
:103650004EF8044B2914E0E7013FEAE7CE53000897
:10366000DF5300082DE9F3410121DDE9087690469A
:103670001D46FFF7D5FC044630B90246254B2648C7
:1036800040F20A3100F0A8FAC5F31303C5F30A5556
:103690002DBB0193B8F1000326D068460093FFF7D5
:1036A00087FD0099F0B1019AC0F1200302FA03F3FB
:1036B0000B43C24063610192019BA361002B14BFC5
:1036C000022101212161C5B1A5F233450544C0F1B4
:1036D00035003D603060204602B0BDE8F08143F423
:1036E0008013D6E76161E7E701A8FFF761FD019B61
:1036F0006361012121612030E5E704EB8103A0F241
:10370000324038601869FFF733FDC0EB411131607A
:10371000E1E700BFCE530008DF53000870B5A1FBFE
:10372000025434B9294600F077F8064628B93046E5
:1037300070BD0C2202600026F9E72A462146FEF7FA
:1037400045F9F4E738B50546002941D051F8043C65
:103750000C1F002BB8BFE41800F09AFA1D4A13683A
:1037600033B9636014602846BDE8384000F096BA6B
:10377000A34208D9206821188B4201BF19685B68F1
:1037800009182160EDE71A465B680BB1A342FAD92C
:1037900011685018A0420BD1206801445018834290
:1037A0001160E0D118685B68536001441160DAE78A
:1037B00002D90C232B60D6E7206821188B4204BF66
:1037C00019685B68636004BF091821605460CAE728
:1037D00038BD00BF2C06002070B50E4E0C46316877
:1037E000054611B900F0E8F930602146284600F09E
:1037F000E3F9431C0AD0C41C24F00304A04207D000
:10380000211A284600F0D8F9013001D14FF0FF34D9
:10381000204670BD300600202DE9F041CD1C25F07A
:10382000030508350C2D38BF0C25002D074601DB9C
:10383000A94205D90C233B6000263046BDE8F08143
:103840002E4E00F025FA33681C4634BB2946384614
:10385000FFF7C2FF431C04464DD134682646002EB4
:1038600040D123683146384604EB030800F0A4F940
:1038700080453AD1216803356D1A25F003050835D6
:103880000C2D38BF0C2529463846FFF7A5FF01301F
:103890002BD023682B4423600EE02268521B1ED4D9
:1038A0000B2A16D96119A342256018BF59606368B5
:1038B00008BF316062514B60384604F10B0600F0DE
:1038C000EDF926F00706231DF21AB6D09B1BA35074
:1038D000B3E76268A3420CBF32605A60ECE723464C
:1038E0006468B2E734467668B9E70C233B60384633
:1038F00000F0D4F9A1E72560DEE700BF2C06002028
:103900002DE9F0478E689E4282460C4690461F463F
:1039100038D88A8912F4906F32D025680969A5EBEE
:103920000109656905EB450505EBD57501334B4488
:103930006D109D4238BF1D46530531D52946FFF70E
:103940006BFF064650B90C23CAF80030A38943F038
:103950004003A3814FF0FF30BDE8F08721694A465C
:10396000FFF750FBA38923F4906343F08003A38106
:10397000266165614E44A5EB09052660A5603E46BB
:10398000BE4200D93E4620683246414600F066F904
:10399000A3689B1BA3602368334423600020DBE7FC
:1039A0002A4600F081F906460028E1D121695046F7
:1039B000FFF7C8FEC7E700002DE9F04F98468B8956
:1039C0001B069DB007460D4614460ED50B6963B91C
:1039D0004021FFF721FF2860286120B90C233B60BC
:1039E0004FF0FF30D1E040236B6100230993202387
:1039F0008DF82930CDF80C803023DFF8A8818DF8C0
:103A00002A304FF0010923469A4613F8012B0AB1D8
:103A1000252AF9D1BAEB040B0BD05B462246294686
:103A20003846FFF76DFF013000F0AA80099A5A442A
:103A300009929AF80030002B00F0A28000234FF08A
:103A4000FF32CDE905230AF1010A049307938DF8AB
:103A500053301A935446052214F8011B5148FCF7C1
:103A60008FFB049AD8B9D00644BF20238DF8533079
:103A7000110744BF2B238DF853309AF800302A2BBE
:103A800015D0079A544600204FF00A0C214611F831
:103A9000013B303B092B4ED9B0B1079214E0A0EBAB
:103AA000080309FA03F313430493A246D2E7039BE6
:103AB000191D1B680391002BBBBF5B4242F0020241
:103AC00007930793B8BF049223782E2B0CD1637809
:103AD0002A2B35D1039B1A1D1B680392002BB8BFFC
:103AE0004FF0FF3302340593DFF8BCA021780322A6
:103AF0005046FCF745FB40B14023A0EB0A0003FA17
:103B000000F0049B03430134049314F8011B27487D
:103B10008DF828100622FCF733FB002838D0244B00
:103B20001BBB039B073323F0070308330393099B55
:103B30003344099367E70CFB02320C460120A5E7EA
:103B400000230134059319464FF00A0C204610F863
:103B5000012B303A092A03D9002BC5D00591C3E7C0
:103B60000CFB012104460123F0E703AB00932A4636
:103B7000104B04A93846FDF7CFFF421C0646D6D1AC
:103B8000AB895B063FF52CAF09981DB0BDE8F08FFF
:103B900003AB00932A46074B04A93846FEF754FAB4
:103BA000EBE700BF5C550008625500086655000849
:103BB000191B00080139000838B5064D00230446DA
:103BC00008462B60FDF7CCF8431C02D12B6803B1EB
:103BD000236038BD340600201FB514461A46094B31
:103BE0001B680546D8684CB1074B0091CDE90134FC
:103BF00006492B4600F00EF8FDF7CDF8044B1C46A5
:103C0000F3E700BF040000206D5500087A55000856
:103C1000A85500080EB403B5014603AB054853F898
:103C2000042B0068019300F095F802B05DF804EBF6
:103C300003B070470400002082B001B901A942B16D
:103C40004BB113780B601278101E18BF012002B020
:103C500070471046FBE76FF00100F8E7884210B5A7
:103C600001EB020402D98442234607D8431EA14235
:103C700008D011F8012B03F8012FF8E702440146A0
:103C80008A4200D110BD13F8014D02F8014DF7E74B
:103C9000014800F011BC00BF38060020014800F0C8
:103CA0000CBC00BF380600202DE9F04180461446C8
:103CB0000E4621B9BDE8F0411146FFF7ADBD2AB966
:103CC000FFF740FD25462846BDE8F08100F05CFC8A
:103CD0008442074602D8B4EB500F12D82146404622
:103CE000FFF79AFD05460028EDD0BC42224631463A
:103CF00028BF3A46FFF786F931464046FFF722FDD6
:103D0000E1E73546DFE79368013B002B10B4936091
:103D100007DA9469A34201DB0A2902D110BC00F042
:103D200049B91368581C10601970084610BC7047D8
:103D3000F8B506460F461446D518AC4201D100200E
:103D400007E014F8011B3A463046FFF7DCFF431C3E
:103D5000F3D1F8BD2DE9F04F0D469DB014469846BD
:103D6000064618B183690BB900F008FB894B9D42E8
:103D70001BD175686B6ED90705D4AB899A0502D43F
:103D8000A86D00F099FBAB891B0701D52B69EBB936
:103D90002946304600F06EF9C0B16B6EDC070ED5D7
:103DA0004FF0FF301DB0BDE8F08F7B4B9D4201D13D
:103DB000B568DFE7794B9D4208BFF568DAE7AB8964
:103DC0009805EDD4A86D00F078FBE9E7002309938E
:103DD00020238DF82930CDF80C803023DFF8C08106
:103DE0008DF82A304FF0010923469A4613F8012B2B
:103DF0000AB1252AF9D1BAEB040B0BD05B46224657
:103E000029463046FFF794FF013000F0AA80099A56
:103E10005A4409929AF80030002B00F0A280002347
:103E20004FF0FF32CDE905230AF1010A049307930D
:103E30008DF853301A935446052214F8011B584844
:103E4000FCF79EF9049AD8B9D10644BF20238DF817
:103E50005330130744BF2B238DF853309AF80030AA
:103E60002A2B15D0079A544600204FF00A0C214601
:103E700011F8013B303B092B4ED9B0B1079214E049
:103E8000A0EB080309FA03F313430493A246D2E715
:103E9000039B191D1B680391002BBBBF5B4242F0C3
:103EA000020207930793B8BF049223782E2B0CD1FC
:103EB00063782A2B35D1039B1A1D1B680392002BB4
:103EC000B8BF4FF0FF3302340593DFF8D8A0217854
:103ED00003225046FCF754F940B14023A0EB0A00FE
:103EE00003FA00F0049B03430134049314F8011B0C
:103EF0002D488DF828100622FCF742F900283FD003
:103F00002A4B1BBB039B073323F0070308330393A0
:103F1000099B3B44099367E70CFB02320C460120E6
:103F2000A5E700230134059319464FF00A0C2046FB
:103F300010F8012B303A092A03D9002BC5D005917E
:103F4000C3E70CFB012104460123F0E703AB009318
:103F50002A46174B04A93046FDF7DEFD0746781CBC
:103F6000D6D16B6ED90705D4AB899A0502D4A86D5A
:103F700000F0A3FAAB895B063FF512AF099811E791
:103F800003AB00932A460A4B04A93046FEF75CF8BF
:103F9000E4E700BFD4560008F4560008B456000801
:103FA0005C5500086255000866550008191B00089A
:103FB000313D0008F8B50E461446054618B1836930
:103FC0000BB900F0DBF9214B9C422BD16C68A36943
:103FD000A360A3891A072FD523696BB323692068CF
:103FE000C01A6369F6B28342374604DC214628468C
:103FF00000F030F930BBA368013BA36023685A1C72
:1040000022601E7063690130834204D0A389DB07FC
:1040100006D50A2E04D12146284600F01BF988B99E
:104020003846F8BD0A4B9C4201D1AC68CFE7094B3A
:104030009C4208BFEC68CAE72146284600F01AF8FF
:104040000028CBD04FF0FF37EAE700BFD456000876
:10405000F4560008B45600080346084641B1FF2A4A
:1040600004D98A221A604FF0FF3070470A7001208D
:1040700070470000324B70B51D6806460C4625B1EE
:10408000AB6913B9284600F079F92E4B9C420FD149
:104090006C68A389B4F90C2019072CD4DD0611D45F
:1040A0000923336042F04003A3814FF0FF303EE02C
:1040B000254B9C4201D1AC68EBE7244B9C4208BFE6
:1040C000EC68E6E7580712D5616B41B104F144038F
:1040D000994202D03046FFF735FB00236363A38982
:1040E00023F02403A3810023636023692360A38951
:1040F00043F00803A38123694BB9A38903F4207318
:10410000B3F5007F03D02146304600F0FDF9A089C9
:10411000B4F90C2010F001030AD00023A3606369F6
:104120005B42A361236943B910F08000BAD170BD2E
:10413000810758BF6369A360F4E70020F7E700BF79
:1041400004000020D4560008F4560008B4560008B5
:104150008A89F8B5054610070C4657D44B68002BE2
:1041600004DC0B6C002B01DC0020F8BDE66A002E9D
:10417000FAD0002312F480522F682B6032D0606D89
:10418000A3895A0705D56368C01A636B0BB1236C0A
:10419000C01A00230246E66A216A2846B047431C3B
:1041A000A38906D129681D292CD8294ACA40D607D7
:1041B00028D500226260D9042269226004D5421CFD
:1041C00001D12B6803B96065616B2F600029CBD0EA
:1041D00004F14403994202D02846FFF7B3FA0020C5
:1041E0006063C2E7216A01232846B047411CC7D15A
:1041F0002B68002BC4D01D2B01D0162B01D12F60B2
:10420000B2E7A38943F04003A381AEE70F69002F13
:10421000AAD093070E6808BF4B690F6018BF002330
:10422000F61B8B60002E9FDD216AD4F828C0334630
:104230003A462846E047002806DCA38943F04003BD
:10424000A3814FF0FF3090E70744361AEAE700BF3A
:104250000100402038B50B6905460C4613B900250E
:10426000284638BD18B183690BB900F087F8144BA4
:104270009C421BD16C68B4F90C30002BEFD0626EFD
:10428000D00704D4990502D4A06D00F015F9284692
:104290002146FFF75DFF636EDA070546E0D4A38988
:1042A0009B05DDD4A06D00F008F9D9E7054B9C42D1
:1042B00001D1AC68DFE7044B9C4208BFEC68DAE749
:1042C000D4560008F4560008B4560008002310B570
:1042D0000446C0E90033C0E904338360818143664A
:1042E000C2818361194608225C30FDF76FFB054BE4
:1042F0006362054BA362054BE362054B24622363B3
:1043000010BD00BF99450008BB450008F3450008F3
:1043100017460008014900F0AFB800BF5542000839
:1043200070B568224D1E55430E4605F17401FFF726
:1043300073FA044640B10021C0E900160C30A060B9
:1043400005F16802FDF742FB204670BD014800F010
:10435000B3B800BF39060020014800F0AEB800BF76
:1043600039060020014800F0A7B800BF3A06002037
:10437000014800F0A2B800BF3A06002010B504467C
:10438000FFF7F0FFA3691BB1BDE81040FFF7F0BFD6
:10439000C4E912332365134B134A1B68A262A3427C
:1043A00004BF0123A361204600F020F8606020468E
:1043B00000F01CF8A060204600F018F80022E06031
:1043C00004216068FFF782FFA06801220921FFF73E
:1043D0007DFFE06802221221FFF778FF0123A3612D
:1043E000D2E700BFF452000815430008F8B50746AD
:1043F000FFF7ACFF1E4B1E68B36913B93046FFF7D9
:10440000BDFF4836D6E90134013B03D533680BB311
:104410003668F7E7B4F90C50D5B9164BE36004F1F0
:104420005800656600F047F8FFF796FFC4E90155AC
:10443000C4E904552560A5610822294604F15C0001
:10444000FDF7C4FAC4E90D55C4E912552046F8BD7C
:104450006834D9E704213846FFF762FF044630602C
:104460000028D5D1FFF778FF0C233B60EEE700BFB3
:10447000F45200080100FFFF2DE9F8430646884684
:1044800000F148040027D4E90195B9F1010905D5E7
:104490002468002CF7D13846BDE8F883AB89012B9E
:1044A00007D9B5F90E30013303D029463046C0474D
:1044B00007436835E9E770477047704770B50E46A7
:1044C000B1F90E10002996B014461D4608DAB6F967
:1044D0000C3000222A601A0610D44FF480630EE0DC
:1044E0006A4600F0BFF80028F1DB019A02F470423E
:1044F000A2F500535A425A412A60EEE740230020B9
:10450000236016B070BD00008B8973B59D07064609
:104510000C4607D504F1470323602361012363613F
:1045200002B070BD01AB6A46FFF7C8FF00990546AF
:104530003046FFF771F948B9B4F90C309A05EFD459
:1045400023F0030343F00203A381E3E70D4BB362BF
:10455000A389206043F08003A381009B6361019BDA
:1045600020615BB1B4F90E10304600F08DF828B12F
:10457000A38923F0030343F00103A381A08905432A
:10458000A581CDE71543000851F8043C181F002B06
:10459000BCBF0B58C018704710B50C46B1F90E10CF
:1045A00000F094F80028ABBF636DA3891B1823F4B7
:1045B0008053ACBF6365A38110BD2DE9F0411F4658
:1045C0008B89DB0505460C46164605D5B1F90E105C
:1045D0000223002200F068F8A389B4F90E1023F436
:1045E0008053A38132463B462846BDE8F04100F0A7
:1045F00017B810B50C46B1F90E1000F055F8431C71
:10460000A38915BF606523F4805343F48053A381CD
:1046100018BFA38110BDB1F90E1000F013B800004F
:1046200038B5074D04460846114600222A601A464E
:10463000FCF7E6FB431C02D12B6803B1236038BDB5
:104640003406002038B5064D0023044608462B608A
:10465000FCF798FB431C02D12B6803B1236038BDE3
:104660003406002038B5074D00230446084611469D
:104670002B60FCF78AFB431C02D12B6803B123603B
:1046800038BD00BF3406002038B5064D002304466F
:1046900008462B60FCF77BFB431C02D12B6803B15F
:1046A000236038BD3406002038B5074D044608465F
:1046B000114600222A601A46FCF76BFB431C02D10C
:1046C0002B6803B1236038BD3406002038B5074D90
:1046D00004460846114600222A601A46FCF72AFBC7
:1046E000431C02D12B6803B1236038BD340600207F
:1046F000F8B500BFF8BC08BC9E467047F8B500BFCF
:08470000F8BC08BC9E4670479E
:104708000000000000000000010203040607080979
:104718000000000001020304656E635F636F756E3D
:10472800743D256C6400000068656C6C6F000000C7
:1047380073656D69737465700000000072756E5F53
:1047480064726976650000000F10201F08000000E1
:104758000000000000000000000000000000000051
:10476800000000000000000000000003000000003E
:10477800FE0C000000000000000000000000000027
:10478800000000000000000000000500000E00000E
:104798000000000E00000000000000000000000003
:1047A8000000000000000000000880009007F000F2
:1047B8009E009007F0009E0010000000000000001E
:1047C800000000000000000008000018042408424F
:1047D80008FF3F42088204040300000000000000B4
:1047E800000000000000000C00003C0042004208ED
:1047F8004206BC014000B0074C0842084008800748
:104808000000000000000C000080035C0422082265
:104818000822085C0880040003800470080008006F
:1048280000000000000200000E0000000000000070
:104838000000000000000000000000000000000070
:1048480000000000050000E00718180420024000DE
:104858000000000000000000000000000000000050
:1048680000000004024004201818E00700000000BF
:104878000000000000000000000000000000000030
:104888000000060000040038001E00380004000084
:104898000000000000000000000000000000000010
:1048A800000900000000800080008000F007800000
:1048B80080008000000000000000000000000000F0
:1048C800020030000C0000000000000000000000A2
:1048D80000000000000000000000000000000005CB
:1048E80000008000800080008000000000000000C0
:1048F80000000000000000000000000000000200AE
:1049080000000C0000000000000000000000000093
:104918000000000000000000000000000006002069
:10492800001C800360001C00020000000000000062
:10493800000000000000000000000000080000F86F
:104948000304040208020802080404F80300000033
:104958000000000000000000000000050000080042
:104968000C000400FE0F0000000000000000000022
:1049780000000000000000000000070000040E0214
:104988000B0209820846083C0800000000000000ED
:10499800000000000000000000070000040C4208AE
:1049A80042084208A6049C0700000000000000001E
:1049B8000000000000000000080001C00160013094
:1049C8000108010601FE0F000100000000000000C0
:1049D800000000000000000700003E0C220822082A
:1049E80022084204800300000000000000000000CC
:1049F800000000000000080000F0034C0424082216
:104A08000822086204C00300000000000000000043
:104A1800000000000008000002000200020C8203EF
:104A280072000E00060000000000000000000000F8
:104A3800000000000800009C07A60C42084208423B
:104A480008A60C9C07000000000000000000000001
:104A58000000000800003800440882088208820C20
:104A68004406F801000000000000000000000000FB
:104A78000000020000300C000000000000000000F0
:104A8800000000000000000000000000000000001E
:104A980000020030300C00000000000000000000A0
:104AA80000000000000000000000000000000000FE
:104AB8000900000000800080004001400120022021
:104AC80002100400000000000000000000000009BF
:104AD8000000000020012001200120012001200108
:104AE8002001000000000000000000000000090094
:104AF80000000010042002200240014001800080D4
:104B08000000000000000000000000000006000097
:104B180004000200C20C22001C000000000000007B
:104B28000000000000000000000000000E0000E08F
:104B38000118060408C4092212121212121211F2E4
:104B480011020A04020801F00000000A000C000328
:104B5800C0013801060106013801C0010003000C3C
:104B680000000000000000000000080000FE0F42E6
:104B780008420842084208A4041803000000000084
:104B8800000000000000000000090000F001080219
:104B980004040208020802080208040400000000D5
:104BA80000000000000000000A0000FE0F020802DA
:104BB8000802080208020804040802F001000000C4
:104BC80000000000000000070000FE0F4208420835
:104BD800420842080208000000000000000000002F
:104BE800000000000000090000FE0F4200420042E1
:104BF8000042004200000000000000000000000029
:104C080000000000000A0000F00108020404020885
:104C18000208420842084208C407000000000000D9
:104C2800000000000A0000FE0F4000400040004065
:104C380000400040004000FE0F000000000000009F
:104C4800000000020000FE0F00000000000000004D
:104C5800000000000000000000000000000000004C
:104C6800000004000800080008FE0700000000001B
:104C7800000000000000000000000000000000002C
:104C880000080000FE0F4000A00010010802040404
:104C98000208000000000000000000000000000002
:104CA800070000FE0F0008000800080008000800C0
:104CB8000000000000000000000000000000000DDF
:104CC8000000FE0F0C003000C0000003000C000CB8
:104CD8000003C00030000C00FE0F000000000B00B5
:104CE80000FE0F0400080010002000C000000100B2
:104CF800020004FE0F00000000000000000B00008E
:104D0800F0010C0604040208020802080208040460
:104D18000C06F0010000000000000000080000FE82
:104D28000F820082008200820044003800000000E8
:104D380000000000000000000000000C0000F0016E
:104D48001C0704040208020802080208060C0C1ECC
:104D5800F8130010000000000000090000FE0F42D8
:104D68000042004200C200240318040008000000AA
:104D780000000000000000000008000018042408DB
:104D880042084208420882040403000000000000B0
:104D9800000000000000000007020002000200FE00
:104DA8000F020002000200000000000000000000E6
:104DB800000000000000000A0000FE0300040008D4
:104DC80000080008000800080004FE0300000000B6
:104DD8000000000000000A02001C006000800300C0
:104DE8000C000C800360001C0002000000000000A2
:104DF80000000000000F06003800C001000E000E81
:104E0800C001380006003800C001000E000EC001C5
:104E18003800060009020804041803A0004000A096
:104E2800001803040402080000000000000000004D
:104E38000000000902000C0010006000800F6000F4
:104E480010000C000200000000000000000000003C
:104E58000000090008020C020B8208420822081A06
:104E6800080608020800000000000000000000001A
:104E7800000500000000FE7F024002400000000024
:104E8800000000000000000000000000000000001A
:104E98000602001C0060008003001C0020000000C7
:104EA80000000000000000000000000000000003F7
:104EB80002400240FE7F00000000000000000000E9
:104EC80000000000000000000000000000000900D1
:104ED80000000040003000080006000800300040D4
:104EE8000000000000000000000000000007002093
:104EF80000200020002000200020002000000000EA
:104F08000000000000000000000000000400000194
:104F18000002000400000000000000000000000083
:104F2800000000000000000000000007000000066C
:104F38002009900890089004E00F0000000000008D
:104F480000000000000000000000080000FF0F2023
:104F5800041008100810082004C003000000000016
:104F6800000000000000000000060000C00320044C
:104F780010081008100800000000000000000000E1
:104F88000000000000000000080000C0032004101A
:104F980008100810082004FF0F000000000000009F
:104FA80000000000000000070000C003A0049008F3
:104FB80090089008E00400000000000000000000D5
:104FC8000000000000000500001000FE0F11001195
:104FD80000000000000000000000000000000000C9
:104FE8000000000000080000C0032044108810885A
:104FF80010882044F03F000000000000000000007E
:1050080000000000080000FF0F2000100010001032
:10501800002000C00F000000000000000000000099
:10502800000000020000F30F000000000000000074
:105038000000000000000000000000000000000068
:1050480000000300800040F33F0000000000000063
:105058000000000000000000000000000000000048
:1050680000070000FF0F8000400120022004100804
:105078000000000000000000000000000000000028
:10508800020000FF0F000000000000000000000008
:105098000000000000000000000000000000000CFC
:1050A8000000F00F2000100010001000E00F20009A
:1050B800100010001000E00F0000000000000800C1
:1050C80000F00F20001000100010002000C00F009A
:1050D80000000000000000000000000000080000C0
:1050E800C00320041008100810082004C0030000A2
:1050F800000000000000000000000000080000F0B0
:10510800FF20041008100810082004C00300000045
:105118000000000000000000000000080000C003BC
:1051280020041008100810082004F0FF00000000F8
:1051380000000000000000000000050000F00F2043
:105148000010001000000000000000000000000037
:105158000000000000000000000600006004900845
:105168009008100920060000000000000000000060
:1051780000000000000000000500001000FC0710FF
:1051880008100800000000000000000000000000F7
:1051980000000000000000080000F0030004000800
:1051A800000800080004F00F0000000000000000E4
:1051B80000000000000008100060008003000C00E0
:1051C8000C800360001000000000000000000000D8
:1051D80000000000000C1000E0000003000C800339
:1051E800700070008003000C0003E0001000000055
:1051F800000000000710082004400280014002203F
:10520800041008000000000000000000000000007A
:10521800000000081080E0800043003C000C000300
:10522800E000100000000000000000000000000086
:105238000000071008100C100A90095008300810D8
:10524800080000000000000000000000000000004E
:105258000004000080007C3F0240000000000000C5
:105268000000000000000000000000000000000036
:10527800020000FFFF000000000000000000000026
:105288000000000000000000000000000000000412
:10529800000002407C3F8000000000000000000089
:1052A80000000000000000000000000000000900ED
:1052B80000800040004000400080008000800040E6
:1052C8000000000000000000000000000004FF07CC
:1052D80000040004FF0700000000000000000000B8
:1052E800000000000000000000000000080000208E
:1052F800494E4600696E66004E414E006E616E0072
:10530800300030313233343536373839414243444E
:1053180045460030313233343536373839616263C7
:1053280064656600496E66696E697479004E614EFF
:10533800005245454E54206D616C6C6F6320737547
:1053480063636565646564002F6D6E742F776F7293
:105358006B73706163652F776F726B7370616365D0
:105368002F4743432D31302D706970656C696E6528
:105378002F6A656E6B696E732D4743432D31302D4F
:10538800706970656C696E652D3333385F32303201
:1053980031313031385F31363334353136323033AC
:1053A8002F7372632F6E65776C69622F6E65776CE9
:1053B80069622F6C6962632F7374646C69622F640D
:1053C800746F612E630042616C6C6F632073756348
:1053D800636565646564002F6D6E742F776F726BFB
:1053E80073706163652F776F726B73706163652F7C
:1053F8004743432D31302D706970656C696E652F98
:105408006A656E6B696E732D4743432D31302D707D
:105418006970656C696E652D3333385F32303231AF
:10542800313031385F313633343531363230332F1D
:105438007372632F6E65776C69622F6E65776C691E
:10544800622F6C6962632F7374646C69622F6D706C
:105458007265632E630000000080E03779C3414322
:10546800176E05B5B5B89346F5F93FE9034F384DC2
:10547800321D30F94877825A3CBF737FDD4F15756E
:10548800000000000000F03F000000000000244081
:1054980000000000000059400000000000408F405C
:1054A800000000000088C34000000000006AF840C7
:1054B8000000000080842E4100000000D0126341EB
:1054C8000000000084D797410000000065CDCD4161
:1054D800000000205FA00242000000E87648374242
:1054E800000000A2941A6D42000040E59C30A242E0
:1054F8000000901EC4BCD64200003426F56B0C4355
:105508000080E03779C3414300A0D88557347643FB
:1055180000C84E676DC1AB43003D9160E458E1435C
:10552800408CB5781DAF154450EFE2D6E41A4B44D1
:1055380092D54D06CFF08044F64AE1C7022DB54416
:10554800B49DD9794378EA440500000019000000A9
:105558007D000000232D302B2000686C4C00656610
:1055680067454647002C2066756E6374696F6E3A0E
:105578002000617373657274696F6E20222573222F
:10558800206661696C65643A2066696C652022252D
:1055980073222C206C696E65202564257325730A97
:1055A800004300504F534958002E0000202020206F
:1055B80020202020202828282828202020202020BB
:1055C800202020202020202020202020881010109B
:1055D80010101010101010101010101004040404F3
:1055E8000404040404041010101010101041414168
:1055F80041414101010101010101010101010101D3
:105608000101010101010110101010101042424265
:1056180042424202020202020202020202020202A2
:105628000202020202020210101010200000000004
:105638000000000000000000000000000000000062
:105648000000000000000000000000000000000052
:105658000000000000000000000000000000000042
:105668000000000000000000000000000000000032
:105678000000000000000000000000000000000022
:105688000000000000000000000000000000000012
:105698000000000000000000000000000000000002
:1056A80000000000000000000000000000000000F2
:1056B80000000000000000000000000000000000E2
:1056C80000000000000000000000000000000000D2
:1056D80000000000000000000000000000000000C2
:1056E80000000000000000000000000000000000B2
:1056F80000000000000000000000000000000000A2
:0C57080000000000000000000000000095
:045714005501000833
:045718003101000853
:10571C00000E27070800002000000000D4560008E7
:10572C00F4560008B4560008000000000000000009
:10573C00000000000000000000000000000000005D
:10574C00000000000000000000000000000000004D
:10575C00000000000000000000000000000000003D
:10576C00000000000000000000000000000000002D
:10577C0000000000000000004300000000000000DA
:10578C00000000000000000000000000000000000D
:10579C0000000000000000004300000000000000BA
:1057AC0000000000000000000000000000000000ED
:1057BC00000000000000000043000000000000009A
:1057CC0000000000000000000000000000000000CD
:1057DC00000000000000000043000000000000007A
:1057EC0000000000000000000000000000000000AD
:1057FC00000000000000000043000000000000005A
:10580C00000000000000000000000000000000008C
:10581C000000000000000000430000000000000039
:10582C00000000000000000000000000000000006C
:10583C000000000000000000430000000000000019
:10584C00000000000000000000000000000000004C
:10585C00000000000000000059400008393C00081E
:10586C0000000000B3550008B1550008A855000809
:10587C00A8550008A8550008A8550008A855000808
:10588C00A8550008A8550008A8550008A8550008F8
:10589C00FFFFFFFFFFFFFFFFFFFFFFFFFFFF00000A
:1058AC000100415343494900000000000000000082
:1058BC0000000000000000000000000000000000DC
:1058CC000000415343494900000000000000000063
:1058DC0000000000000000000000000000000000BC
:0458EC0000000000B8
:0400000508001931A5
:00000001FF
